:020000040800F2
:100000008802002089010008E1020008E3020008DC
:10001000E7020008EB020008EF0200080000000001
:10002000000000000000000000000000F3020008D3
:10003000F502000800000000F7020008F9020008BD
:100040009F0100089F0100089F0100089F01000810
:100050009F0100089F0100089F0100089F01000800
:100060009F0100089F0100089F0100089F010008F0
:100070009F0100089F0100089F0100089F010008E0
:100080009F0100089F0100089F0100089F010008D0
:100090009F0100089F0100089F0100089F010008C0
:1000A0009F0100089F0100089F0100089F010008B0
:1000B0009F0100089F0100089F0100089F010008A0
:1000C0009F0100089F0100089F0100089F01000890
:1000D0009F0100089F010008FB0200089F01000823
:1000E000810300089F0100089F01000800F002F84A
:1000F00000F03AF80AA090E8000C82448344AAF188
:100100000107DA4501D100F02FF8AFF2090EBAE885
:100110000F0013F0010F18BFFB1A43F0010318473B
:10012000701F0000901F0000103A24BF78C878C1EB
:10013000FAD8520724BF30C830C144BF04680C60ED
:10014000704700000023002400250026103A28BF35
:1001500078C1FBD8520728BF30C148BF0B60704739
:100160001FB51FBD10B510BD01F051FF1146FFF7BF
:10017000F7FF00F023F801F06FFF03B4FFF7F2FF81
:1001800003BC01F073FF000008480047FEE7FEE7EC
:10019000FEE7FEE7FEE7FEE7FEE7FEE7FEE7FEE737
:1001A00003480449024A044B70470000ED00000870
:1001B00088000020880200208800002001F0F9FE5D
:1001C00000F081F800F0D6F900F00BFA00F050F9D9
:1001D00000F0F6F900BFFEE708B50121C80201F002
:1001E000C5FB0121042001F0C1FB4FF47060ADF8A4
:1001F000000018208DF8030003208DF802006946E6
:10020000344801F01DF94FF43C40ADF8000008BD42
:10021000FEB547F2305740F2A46425463E464EF6FE
:100220005F20ADF804001720ADF800000020ADF805
:100230000600ADF802008DF808006946264800F077
:100240001EFB602025490880012048800846C780A1
:10025000002008810821204800F0C8FE1F491E48E0
:1002600000F026FB01201D4948800846C4801A483A
:1002700000F055FB0821184800F0C1FE0120174985
:1002800048800846C580144800F093FB08211248B6
:1002900000F0C2FE0120114948800846C6800E4881
:1002A00000F0CFFB08210C4800F0BFFE01210A48F6
:1002B00000F06CFE0121084800F073FD01210648A2
:1002C00000F063FDFEBD10B5FFF786FFFFF7A0FF4E
:1002D00010BD000000080140002C01401800002063
:1002E000704700BFFEE700BFFEE700BFFEE700BFAC
:1002F000FEE7704770477047704710B5584801F0E7
:1003000052FD0446012C1ED10A205649C880564889
:1003100000F097FB4FF4FA6000F0B7F95020514914
:10032000C880514800F08DFB4FF47A7000F0ADF9B1
:1003300021464B4801F033FD00BF4021484801F001
:1003400085FD0028F9D0022C19D14FF4967045494B
:10035000C880454800F0ACFA00204249C8804248B5
:1003600000F0DDFA4FF496703E49C8803E4800F038
:1003700020FB50203B49C8803B4800F062FB10BD89
:1003800010B5322000F081F94FF48051374801F068
:10039000E8F8012807D1000301F0D9FB4FF4005021
:1003A00001F0D5FB10BD77212D4801F0F8FC00BF0E
:1003B00040212B4801F04AFD0028F9D04FF480502D
:1003C00001F0B4FB48B100202649C880264800F05F
:1003D0006FFA2449244800F0A2FA4FF4005001F0CB
:1003E000A5FB28B100201F49C8801F4800F0E1FA92
:1003F00071211B4801F0D3FC00BF4021184801F0D7
:1004000025FD0028F9D04FF4805001F08FFBE0B1BA
:100410004FF4005001F08AFBB8B100201149C880A8
:10042000114800F045FA4FF461700E49C8800E483B
:1004300000F075FAA1B20A4801F0B1FC00BF4021FA
:10044000074801F003FD0028F9D04FF4805001F077
:100450007EFB4FF4005001F07AFB00BFA2E70000E2
:100460000044004018000020002C0140000C014016
:1004700000B589B00121042001F078FA0121480477
:1004800001F081FA26208DF81C0001208DF81D0056
:1004900000208DF81E0001208DF81F0007A800F035
:1004A0001AF90121480401F06EFA0121042001F03B
:1004B0005DFA0420ADF8200003208DF822001820FA
:1004C0008DF8230008A91F4800F0BAFF0820ADF8F6
:1004D000200003208DF8220004208DF8230008A9B5
:1004E000184800F0ADFF4FF4E13003900020ADF864
:1004F0001000ADF81200ADF81400ADF818000C2093
:10050000ADF816000020ADF80400ADF806004FF479
:100510000070ADF808000020ADF80A0003A90A48F1
:1005200001F067FB01A9084801F0BAFB012240F283
:100530002551054801F0D7FB0121034801F0C7FB15
:1005400009B000BD000801400044004008B54FF468
:10055000C06000F0BBF828208DF800000C208DF85A
:1005600001008DF8020001208DF80300684600F0BC
:10057000B2F808BD0EB50121092001F0F7F9FFF727
:10058000E5FF4FF48050ADF8080028208DF80B00EF
:1005900002A9274800F054FF0C21012001F054F873
:1005A0004FF48050009000208DF804000C208DF84E
:1005B000050001208DF80600684601F04DFA0EBDD9
:1005C00008B50121092001F0D1F94FF48050ADF8B0
:1005D000000028208DF803006946154800F030FF20
:1005E00008BD0EB50121092001F0C0F9FFF7AEFFEB
:1005F0004FF40050ADF8080028208DF80B0002A938
:100600000B4800F01DFF0D21012001F01DF84FF4F3
:100610000050009000208DF804000C208DF805009B
:1006200001208DF80600684601F016FA0EBD0000A4
:10063000000C014030B520480068204AB0FBF2F1C0
:10064000B1F1807F01D301201BE021F07F40401EEB
:100650004FF0E022506150170F22002806DA1301F4
:10066000174C00F00F052D1F635502E01301154CC8
:10067000235400BF00204FF0E0229061072010615A
:10068000002008B100BFFEE730BD002107E00022D6
:1006900000E0521C42F614039A42FAD3491C8142EC
:1006A000F5D370470848006820B107480068401E2D
:1006B00005490860704700007C200008A086010002
:1006C00018ED00E000E400E00000002031490143A3
:1006D000314A1160704770B5002100230F22C478A1
:1006E0000CB32D4C246804F4E064C4F5E064210AE2
:1006F000C1F10403CA40447804FA03F18478144039
:1007000021430901254C0678A155047804F01F0502
:100710000124AC4005786D114FF0E02606EB85050D
:10072000C5F8004109E0047804F01F050124AC403D
:100730001B4D0678761145F8264070BD194A0A40CF
:100740000243154B1B1F1A60704739B1124A121D24
:1007500012680243104B1B1D1A6006E00E4A121D60
:10076000126882430C4B1B1D1A607047042808D185
:100770004FF0E021096941F004014FF0E0221161DE
:1007800007E04FF0E021096921F004014FF0E02279
:10079000116170470000FA050CED00E000E400E094
:1007A00080E100E080FFFF1F10B50446F749601AA2
:1007B0008C4245D00CDCB4F1804F1DD0F448201899
:1007C00023D0B0F5806F29D0B0F5006F54D12EE062
:1007D000B0F5806F3DD0B0F58E3F03D0B0F5923FBD
:1007E0004AD13FE00121C80201F0DAF800214FF4BC
:1007F000006001F0D5F840E00121084601F0DDF885
:100800000021012001F0D9F837E00121022001F098
:10081000D4F80021022001F0D0F82EE001210420BC
:1008200001F0CBF80021042001F0C7F825E00121F8
:10083000082001F0C2F80021082001F0BEF81CE0F9
:100840000121102001F0B9F80021102001F0B5F8C5
:1008500013E00121202001F0B0F80021202001F058
:10086000ACF80AE00121480301F09AF800214FF4A6
:10087000005001F095F800E000BF00BF10BD0288F5
:1008800002F08F020280CA884B881A4303881A43F9
:1008900002808A8882850A880285BE4A904202D0F8
:1008A000BD4A904201D10A7A0286012282827047B3
:1008B00070B5002400220023058C4FF6FE763540EB
:1008C0000584028C8388048B4FF68F752C400D882D
:1008D0002C43751E2A400D892A434D882A43CD8812
:1008E0008586AC4DA84202D0AB4DA84213D14FF63D
:1008F000F7752A404D892A434FF6FB752A408D88AB
:100900002A4347F6FF652B4047F6FF552B408D895C
:100910002B43CD892B4383800483028470BD70B543
:10092000002400220023058C4FF6EF763540058425
:10093000028C8388048B48F6FF752C400D884FF697
:10094000FF7606EA05252C434FF6DF752A400D8910
:1009500006EA05152A434D8806EA05152A43CD887F
:1009600005878C4DA84202D08B4DA8421DD14FF671
:100970007F752A404D894FF6FF7606EA05152A4312
:100980004FF6BF752A408D8806EA05152A4347F6BB
:10099000FF352B4047F2FF752B408D8906EA850510
:1009A0002B43CD8906EA85052B438380048302848B
:1009B00070BD70B5002400220023058C4FF6FF6641
:1009C00035400584028C8388848B4FF68F752C40CC
:1009D0000D882C434FF6FF552A400D894FF6FF76C0
:1009E00006EA05252A434D8806EA05252A43CD88CF
:1009F0008587684DA84202D0674DA8421DD14FF2AD
:100A0000FF752A404D894FF6FF7606EA05252A43F1
:100A10004FF6FF352A408D8806EA05252A4346F61B
:100A2000FF752B4045F6FF752B408D8906EA0515AD
:100A30002B43CD8906EA05152B43838084830284EA
:100A400070BD70B5002400220023058C4EF6FF76A1
:100A500035400584028C8388848B48F6FF752C40D2
:100A60000D884FF6FF7606EA05252C434DF6FF75F7
:100A70002A400D8906EA05352A434D8806EA0535E0
:100A80002A43CD88A0F84050424DA84202D0424DA2
:100A9000A84207D1C3F30D038D894FF6FF7606EA0E
:100AA00085152B4383808483028470BD828B4FF233
:100AB000FF331A408283828B4FF6FF7303EA0123D0
:100AC0001A4382837047F0B50C4615460021002278
:100AD0000026078C4EF6FF7C07EA0C070784818B03
:100AE000028C4FF6FF7707EA043640F6FF4739409D
:100AF0004FF6FF7707EA05274FF6FF7C0CEA033C29
:100B000047EA0C0739434DF6FF773A4046F48057E1
:100B10003A4381830284F0BD828B4FF6F3731A400F
:100B20008283828B0A4382837047F0B50C46154658
:100B3000002100220026078C4FF6FF6C07EA0C0705
:100B40000784818B028C4FF6FF7707EA04264FF665
:100B50000C7739404FF6FF7707EA03172F433943E5
:100B60004FF6FF573A4046F480773A438183028438
:100B7000F0BD028B4FF2FF331A400283028B4FF617
:100B8000FF7303EA01231A430283704700100040F9
:100B900000FCFFBF002C014000340140F0B50C46C2
:100BA0001546002100220026078C4FF6EF7C07EA4D
:100BB0000C070784018B028C4FF6FF7707EA0416B7
:100BC00040F6FF4739404FF6FF7707EA03373943CE
:100BD0004FF6FF7707EA052739434FF6DF773A40AC
:100BE00046F010073A4301830284F0BD028B4FF6B2
:100BF000F3731A400283028B0A4302837047F0B5F5
:100C00000C46154600210022068C4FF6FE773E402A
:100C10000684018B028C4FF60C7631407E1C06EA6E
:100C200003162E4331437E1E324044F00106324308
:100C300001830284F0BD70B505460C46208850B98A
:100C40002389A28861882846FFF7D9FFE1882846D2
:100C5000FFF7CCFF25E0208804280AD12389A28849
:100C600061882846FFF79AFFE1882846FFF781FF51
:100C700017E0208808280AD12389A288618828469D
:100C8000FFF753FFE1882846FFF746FF09E0238975
:100C9000A28861882846FFF716FFE1882846FFF7FB
:100CA00005FF70BD2DE9F04105460C4600260127E1
:100CB000608808B9022600E00026A088012801D13A
:100CC000022700E001272088A0B92389A288618833
:100CD0002846FFF794FFE1882846FFF787FF23891E
:100CE0003A4631462846FFF759FFE1882846FFF784
:100CF00040FF13E02389A28861882846FFF74EFF52
:100D0000E1882846FFF735FF23893A4631462846D1
:100D1000FFF775FFE1882846FFF768FFBDE8F0811F
:100D20000A884B881A438B881A43CB881A430B894D
:100D30001A434B891A438B891A43A0F84420704701
:100D40004FF6FF71818000210180C18041800172D6
:100D500070470021018041808180C18001814181F3
:100D60008181C18170470021018041800121818002
:100D70000021C18001817047002101804180818074
:100D8000C180018141818181704721B1028842F097
:100D90000102028004E0028840F2FE331A40028021
:100DA000704731B1B0F8442042F40042A0F844202A
:100DB00005E0B0F84420C2F30E02A0F844207047CA
:100DC0001AB183890B43838102E083898B4383813A
:100DD00070478182704741EA0203A0F848307047AB
:100DE0001AB183890B43838102E083898B4383811A
:100DF000704701894FF6F8721140018170470A4629
:100E0000002101894FF68F7319401143018170470A
:100E100030B504460D4629462046FFF7F0FF2089ED
:100E200040F00700208130BD2DE9F04104460D4619
:100E300016461F46602D06D13B460122314620460C
:100E4000FFF7ACFE05E03B46012231462046FFF7A6
:100E5000D6FE29462046FFF7D2FF208940F0070042
:100E60002081BDE8F08170B50C4600210189C9B22E
:100E700044EA02054FF6FF7606EA03263543294386
:100E8000018170BD2DE9F04105460E461746984692
:100E9000002443463A4631462846FFF7E4FF2C89B2
:100EA0004FF6F870044044F007044FF68F7004408A
:100EB00044F070042C81BDE8F081F0B504460D4685
:100EC00016461F463B46324629462046FFF7CBFFD3
:100ED000208940F480402081F0BD018582827047E6
:100EE0000A460021018840F28F33194011430180E6
:100EF0007047F0B50C4615461E460021002200231F
:100F00000189028B038C4FF6F877394021434FF665
:100F1000FC473A4040F201173A434FF6DD773B4039
:100F20004FF6FF7707EA06172F433B430181028301
:100F30000384F0BD0A460021018B4FF68F731940E0
:100F40001143018370470A460021018B48F6FF7365
:100F500019404FF6FF7303EA0223194301837047D8
:100F60000A460021818B4FF68F731940114381830C
:100F700070470A460021818B48F6FF7319404FF6EF
:100F8000FF7303EA022319438183704721B102886A
:100F900042F08002028004E0028840F27F331A406F
:100FA0000280704721B1828842F00402828004E00E
:100FB00082884FF6FB731A408280704721B1828885
:100FC00042F00802828004E082884FF6F7731A40EC
:100FD0008280704721B1828842F00102828004E061
:100FE00082884FF6FE731A40828070470A460021BD
:100FF000018B4FF6F77319401143018370470A467E
:101000000021018B4FF2FF7319404FF6FF7303EA83
:1010100002231943018370470A460021818B4FF652
:10102000F77319401143818370470A460021818B71
:101030004FF2FF7319404FF6FF7303EA022319437F
:10104000818370470A460021018B4FF6FB731940DC
:101050001143018370470A460021018B4FF6FF338D
:1010600019404FF6FF7303EA0223194301837047C7
:101070000A460021818B4FF6FB731940114381838F
:1010800070470A460021818B4FF6FF3319404FF617
:10109000FF7303EA02231943818370470A46002144
:1010A000018B4FF67F7319401143018370470A4645
:1010B0000021018BC1F30E014FF6FF7303EA0223F7
:1010C0001943018370470A460021818B4FF67F73D5
:1010D00019401143818370470A460021818BC1F377
:1010E0000E014FF6FF7303EA022319438183704711
:1010F0000A460021018C4FF6FD731940114301840B
:1011000070470A460021018C4FF6F77319401143CE
:10111000018470470A460021018C4FF6DF731940A5
:101120004FF6FF7303EA02131943018470470A461E
:101130000021018C4FF67F7319404FF6FF7303EACD
:1011400002131943018470470A460021018C4FF6AF
:10115000FF5319404FF6FF7303EA0223194301843A
:1011600070470A460021018C4FF2FF7319404FF679
:10117000FF7303EA02231943018470470A460021E2
:10118000018C4DF6FF7319404FF6FF7303EA0233EB
:1011900019430184704710B5038C01248C40A3438C
:1011A0000384038C02FA01F4A4B22343038410BD28
:1011B00010B5038C04248C40A3430384038C02FAEF
:1011C00001F4A4B22343038410BD30B5038C012481
:1011D0008C40A343038409B1082918D100F11803F6
:1011E00003EB61031B684FF68F74234000F1180472
:1011F00004EB6104236000F1180303EB61031B6837
:10120000134300F1180404EB610423601FE00B1F7B
:10121000C3F34E0400F118031B5948F6FF74234032
:101220000C1FC4F34E0500F1180463510B1FC3F3E8
:101230004E0400F118031B594FF6FF7404EA022410
:1012400023430C1FC4F34E0500F11804635130BD55
:1012500021B1028842F00202028004E0028840F2DA
:10126000FD331A400280704721B1028842F0040227
:10127000028004E0028840F2FB331A40028070478B
:1012800021B1828842F08002828004E082884FF699
:101290007F731A4082807047028840F2F7331A4009
:1012A000028002880A430280704782884FF68F735B
:1012B0001A40828082880A438280704702894FF6F2
:1012C000F8731A40028102890A4302817047028939
:1012D0004FF67F731A40028102890A4302817047E8
:1012E0008184704781857047818670470187704788
:1012F00081877047A0F8401070470288D2B2028000
:1013000002880A43028070470146888E7047014672
:10131000088F70470146888F70470146B1F840003A
:1013200070470146888C70470146088D7047024619
:101330000020138A0B4201D0012000E000207047FA
:10134000CA430282704730B50246002000230024C1
:10135000158A05EA0103958905EA010413B10CB168
:10136000012000E0002030BDCA4302827047000027
:1013700010B50446C549601A8C422FD009DCC44818
:10138000201810D0B0F5806F16D0B0F5006F4AD19C
:101390001BE0B0F5806F2AD0B0F5006F30D0B0F50B
:1013A000406F40D135E00121042000F0F9FA00211E
:1013B000042000F0F5FA37E00121082000F0F0FAEF
:1013C0000021082000F0ECFA2EE00121102000F0AE
:1013D000E7FA0021102000F0E3FA25E001212020A7
:1013E00000F0DEFA0021202000F0DAFA1CE00121F2
:1013F000402000F0D5FA0021402000F0D1FA13E09F
:101400000121802000F0CCFA0021802000F0C8FAF1
:101410000AE00121080200F0C3FA00214FF48070B5
:1014200000F0BEFA00E000BF00BF10BD10B5012102
:10143000084600F0B5FA0021012000F0B1FA10BD15
:101440002DE9F0410246002500260020002300245B
:10145000002791F803C00CF00F0591F803C01CF0B1
:10146000100F03D091F802C04CEA050591F800C0B6
:10147000BCF1000F31D0146800202BE04FF0010CBC
:101480000CFA00F3B1F800C00CEA03069E4220D12A
:1014900083004FF00F0C0CFA03F7BC4305FA03FC72
:1014A0004CEA040491F803C0BCF1280F06D14FF0B8
:1014B000010C0CFA00FCC2F814C00AE091F803C059
:1014C000BCF1480F05D14FF0010C0CFA00FCC2F83A
:1014D00010C0401C0828D1D31460B1F800C0BCF182
:1014E000FF0F34DD546800202EE000F1080C4FF0AF
:1014F000010808FA0CF3B1F800C00CEA03069E429A
:1015000021D183004FF00F0C0CFA03F7BC4305FA0E
:1015100003FC4CEA040491F803C0BCF1280F05D188
:1015200000F1080C08FA0CF8C2F8148091F803C016
:10153000BCF1480F07D100F1080C4FF0010808FA80
:101540000CF8C2F81080401C0828CED35460BDE8C7
:10155000F0814FF6FF710180022181700421C1707A
:1015600070470246002093680B4201D0012000E042
:10157000002070470146886880B27047024600200C
:10158000D3680B4201D0012000E0002070470146E3
:10159000C86880B2704701617047416170470AB105
:1015A000016100E041617047C16070474FF48032D3
:1015B0000A43826181618261826982697047024661
:1015C0000020344B18684FF68073184040EA021030
:1015D0000843304B186070472F49C8617047F0B519
:1015E0000A4600230024002100252A4E7168C0F31A
:1015F000034583B200F44016B6F5401F08D121F030
:101600007061244E766826F07066224F7E6012E08C
:1016100000F48016B6F5801F06D1032606FA05F4FD
:10162000A14341F0706106E0460D360103FA06F66B
:10163000B14341F0706122B1460D360103FA06F65E
:101640003143144E7160F0BD30B500228B071C0F82
:101650000F2303FA04F20F4B08338C1053F8243095
:1016600093430C4C08348D1044F8253023468C10DD
:1016700053F824308C07240F00FA04F42343054C5C
:1016800008348D1044F8253030BD000000140140AE
:1016900000F8FEBF0000014000002042DC48006866
:1016A00040F00100DA49086008464068D94908401E
:1016B000D749486008460068D7490840D4490860BF
:1016C0000846006820F4802008600846406820F43E
:1016D000FE004860002088607047CD49096821F409
:1016E0008031CB4A11601146096821F480211160D4
:1016F000B0F5803F03D0B0F5802F0ED106E0C4498D
:10170000096841F48031C24A116007E0C0490968A4
:1017100041F4A021BE4A116000E000BF00BF704745
:1017200010B501460022002300204A11012A02D1EF
:10173000B74C236806E0022A02D1B54C236A01E0C7
:10174000B34C636A01F01F02012494401C4201D093
:10175000012000E0002010BD38B5002000900024DA
:10176000002500BF3120FFF7DBFF05460098401C35
:1017700000901DB90098B0F5A06FF3D13120FFF7AC
:10178000CFFF08B1012400E00024204638BD014607
:1017900000209F4A106820F0F80040EAC100106065
:1017A00070479E490860704702460020984B586871
:1017B00020F47C1042EA01031843954B58607047AF
:1017C00096490866704701460020914A506820F00B
:1017D00003000843506070478D48406800F00C00DB
:1017E0007047014600208A4A506820F0F000084304
:1017F0005060704701460020854A506820F4E06040
:1018000008435060704701460020814A506820F428
:10181000605040EAC1005060704729B17C4A527A5A
:1018200002437B4B5A7204E0794A527A8243784BE6
:101830005A7270477A490860704701460020744A1E
:10184000506820F440400843506070470021754ABA
:1018500011706F4A82F82010012802D0042808D1A4
:1018600003E001216F4A117004E005216D4A1170F7
:1018700000E000BF00BF70476B49086070476449D3
:10188000096A0143624A1162704767494439086036
:10189000704730B500210022002400235C4D6D68A4
:1018A00005F00C0121B1042905D0082923D105E058
:1018B0005E4D056022E05D4D05601FE0544D6D6892
:1018C00005F47012022505EB9242514D6D6805F446
:1018D00080341CB9564D554305600BE04C4D6D6886
:1018E00015F4003F03D0524D5543056002E04F4DC3
:1018F0005543056002E04D4D056000BF00BF444DFB
:101900006D6805F0F00109094A4D6B5C0568DD4022
:1019100045603F4D6D6805F4E061090A454D6B5C1B
:101920004568DD4085603A4D6D6805F46051C90A2F
:10193000404D6B5C4568DD40C560354D6D6805F414
:101940004041890B3C4D6B5CC568B5FBF3F5056107
:1019500030BD29B12E4A526902432D4B5A6104E031
:101960002B4A526982432A4B5A61704729B1284A4F
:1019700092690243264B9A6104E0254A92698243A8
:10198000234B9A61704729B1214AD2690243204B07
:10199000DA6104E01E4AD26982431D4BDA61704766
:1019A00029B11B4AD2680243194BDA6004E0184A95
:1019B000D2688243164BDA60704729B1144A126923
:1019C0000243134B1A6104E0114A12698243104B1F
:1019D0001A61704714494039086070470F49C8645C
:1019E00070470B49C87170470948406A40F08070E1
:1019F00007494862704701460020054A92680A423A
:101A000001D0012000E00020704701498872704732
:101A1000001002400000FFF8FFFFF6FE0000424207
:101A2000D8004242201002408004424200127A0054
:101A300000093D0004000020140000200020464959
:101A40000860091D0860091D0860091D08604348F9
:101A50004149143108607047817900293ED03E49E0
:101A60000968026891433C4A1160111D09680268C7
:101A70009143394A121D11600179121F8958026879
:101A800011430279344BD150334908310968026857
:101A90009143314A08321160111D0968026891436F
:101AA0002D4A0C321160417910290ED1111F09689D
:101AB00002681143284A08321160111D0968026842
:101AC0001143254A0C32116010E04179224A8958AD
:101AD000026811434279204BD15007E001791E4A38
:101AE00089580268914302791B4BD15070470021FD
:101AF000016001710C21417100218171704716490B
:101B0000103109680143144A1032116070470146D0
:101B10000020114A143212680A4201D0012000E06C
:101B2000002070470C4914310860704701460020BE
:101B30000022094B1B6803EA0102074B14331B68A0
:101B40000B4202D00AB1012000E000207047024998
:101B5000143108607047000000040140FFFF0700D7
:101B600010B50446D749601A8C422BD006DCD64803
:101B7000201813D0B0F5806F38D119E0B0F5806F20
:101B80002AD0B0F56C4F31D101218803FFF708FF4F
:101B900000214FF48040FFF703FF28E001214804B3
:101BA000FFF70BFF00214FF40030FFF706FF1EE0A8
:101BB00001218804FFF701FF00214FF48020FFF787
:101BC000FCFE14E00121C804FFF7F7FE00214FF4EA
:101BD0000020FFF7F2FE0AE001210805FFF7EDFE05
:101BE00000214FF48010FFF7E8FE00E000BF00BFC7
:101BF00010BD2DE9F04786B005460E460024A246EA
:101C000000BF00BF00272F462C8A4CF6FF7004400F
:101C1000F08804432C82AC894EF6F3100440B0885F
:101C200031890843718908430443AC81AC8A4FF67B
:101C3000FF400440B0890443AC8201A8FFF729FEAD
:101C4000A248874202D1DDF810A001E0DDF80CA027
:101C50000AEBCA0000EB0A1031688900B0FBF1F80A
:101C60006420B8FBF0F004012009642101FB108915
:101C7000322000EB0910B0FBF1F000F00F0004433C
:101C80002C8106B0BDE8F0874FF4165101600021A9
:101C90008180C18001810C214181002181817047B7
:101CA00010B502460020108A4FF2FF0318400B883F
:101CB0004C8823438C882343CC88234318431082C9
:101CC00010BD0021018041808180C180704721B119
:101CD000828942F40052828104E082894DF6FF73CA
:101CE0001A4082817047F0B5034600240026002583
:101CF00000201846C1F3421401F01F06012707FA1D
:101D000006F5012C01D10C3004E0022C01D1103079
:101D100000E014301AB107682F43076002E007683B
:101D2000AF430760F0BD1AB1838A0B43838202E0A0
:101D3000838A8B4383827047028A4FF6F0731A407E
:101D40000282028A0A430282704782894FF2FF733D
:101D50001A40828182890A438281704721B1828937
:101D600042F00202828104E082894FF6FD731A403C
:101D700082817047028A4FF6DF731A400282028A1C
:101D80000A430282704721B1028A42F480420282F1
:101D900004E0028A4BF6FF731A4002827047C1F3D7
:101DA00008028280704701468888C0F308007047A7
:101DB000818941F0010181817047028BD2B2028397
:101DC000028B42EA012202837047028B02F47F42B7
:101DD0000283028B0A430283704721B1828A42F058
:101DE0002002828204E0828A4FF6DF731A408282E8
:101DF000704721B1828A42F01002828204E0828A16
:101E00004FF6EF731A408282704721B1828A42F006
:101E10000802828204E0828A4FF6F7731A408282B7
:101E20007047828A4FF6FB731A408282828A0A4385
:101E30008282704721B1828A42F00202828204E0EB
:101E4000828A4FF6FD731A40828270470246002054
:101E500013880B4201D0012000E000207047CA43E4
:101E60000280704770B502460B4600240021002511
:101E70000020C3F3421503F01F01012606FA01F109
:101E8000012D02D19689314006E0022D02D1168A39
:101E9000314001E0968A31401C12012606FA04F412
:101EA0001688344011B10CB1012000E0002070BD53
:101EB00010B5002200230A1201249440A3B2DC438F
:101EC000048010BD004C004000BCFFBF0038014042
:101ED0000CB50020019000904748006840F4803025
:101EE0004549086000BF4448006800F40030009095
:101EF0000198401C0190009818B90198B0F5A06FA6
:101F0000F1D13D48006810F4003F02D0012000905C
:101F100001E0002000900098012843D13748006874
:101F200040F01000354908600846006820F00300C2
:101F300008600846006840F0020008602E484068CB
:101F40002D4948600846406848600846406840F4AB
:101F5000806048600846406820F47C10486008466D
:101F6000406840F4E81048600846006840F080701F
:101F7000086000BF2048006810F0007FFAD01E48BB
:101F8000406820F003001C4948600846406840F063
:101F90000200486000BF1848406800F00C000828A4
:101FA000F9D101E000BFFEE70CBD10B5FFF790FFCF
:101FB00010BD10B51048006840F001000E490860DF
:101FC000084640680E4908400B49486008460068CA
:101FD0000C490840084908600846006820F4802041
:101FE00008600846406820F4FE00486000208860D1
:101FF000FFF7DBFF10BD0000001002400020024090
:102000000000FFF8FFFFF6FE704770477047754607
:1020100000F028F8AE4605006946534620F0070058
:10202000854618B020B5FEF7BBF8BDE820404FF05C
:1020300000064FF000074FF000084FF0000B21F0B2
:102040000701AC46ACE8C009ACE8C009ACE8C0097F
:10205000ACE8C0098D4670470446AFF300802046C7
:10206000FEF78BF80048704728000020014918202F
:10207000ABBEFEE7260002007047000000A24A0443
:1020800000A24A0400A24A040051250200A24A0408
:10209000B0200008000000201800000028010008FF
:1020A000C820000818000020700200004401000849
:1020B000000000000000000001020304010203040C
:0820C0000607080902040608E6
:04000005080000ED02
:00000001FF
